:020000040000FA
:10000000F8420020A1020000A9020000AB0200009B
:10001000AD020000AF020000B102000000000000CD
:10002000000000000000000000000000B30200001B
:10003000B502000000000000B7020000B902000095
:10004000BB020000BB020000BB020000BB020000BC
:10005000BB020000BB020000BB020000BB020000AC
:10006000BB020000BB020000BB020000BB0200009C
:10007000BB020000BB020000BB020000BB0200008C
:10008000BB020000BB020000BB020000BB0200007C
:10009000BB020000BB020000BB020000BB0200006C
:1000A000BB020000BB020000BB020000BB0200005C
:1000B000BB020000BB0200000000000000000000C6
:1000C000BB020000BB020000BB020000BB0200003C
:1000D000BB020000BB020000BB02000000000000E9
:1000E0000000000000000000000000000000000010
:1000F0000000000000000000000000000000000000
:1001000000000000000000000000000000000000EF
:1001100000000000000000000000000000000000DF
:1001200000000000000000000000000000000000CF
:1001300000000000000000000000000000000000BF
:1001400000000000000000000000000000000000AF
:10015000000000000000000000000000000000009F
:10016000000000000000000000000000000000008F
:10017000000000000000000000000000000000007F
:10018000000000000000000000000000000000006F
:10019000000000000000000000000000000000005F
:1001A000000000000000000000000000000000004F
:1001B000000000000000000000000000000000003F
:1001C000000000000000000000000000000000002F
:1001D000000000000000000000000000000000001F
:1001E000000000000000000000000000000000000F
:1001F00000000000000000000000000000000000FF
:1002000000F002F800F03CF80AA090E8000C8244EC
:100210008344AAF10107DA4501D100F031F8AFF2C9
:10022000090EBAE80F0013F0010F18BFFB1A43F0D4
:100230000103184798070000B8070000103A24BFD0
:1002400078C878C1FAD8520724BF30C830C144BF3B
:1002500004680C607047000000230024002500267D
:10026000103A28BF78C1FBD8520728BF30C148BF19
:100270000B6070471FB500F0A3FB1FBD10B510BD8C
:1002800000F0ADF81146FFF7F5FF00F091FB00F02C
:10029000CBF803B4FFF7F2FF03BC00F0CFF8000087
:1002A0000948804709480047FEE7FEE7FEE7FEE70A
:1002B000FEE7FEE7FEE7FEE7FEE7FEE70448054946
:1002C000054A064B704700001105000001020000BE
:1002D000F8020020F8420020F8220020F822002036
:1002E000032A40F2308010F0030C00F0158011F862
:1002F000013BBCF1020F624498BF11F801CB00F83A
:10030000013B38BF11F8013BA2F1040298BF00F88D
:1003100001CB38BF00F8013B11F0030300F0288047
:10032000083AC0F0088051F8043B083A51F804CB71
:10033000A0E80810F5E7121D5CBF51F8043B40F837
:10034000043BAFF30080D20724BF11F8013B11F842
:1003500001CB48BF11F8012B24BF00F8013B00F886
:1003600001CB48BF00F8012B7047704770477047BA
:1003700010B5203AC0F00B80B1E81850203AA0E840
:100380001850B1E81850A0E81850BFF4F5AF5FEA74
:10039000027C24BFB1E81850A0E8185044BF18C927
:1003A00018C0BDE810405FEA827C24BF51F8043BCE
:1003B00040F8043B08BF7047D20728BF31F8023B22
:1003C00048BF11F8012B28BF20F8023B48BF00F8B6
:1003D000012B70470048704798020020704775460F
:1003E000FFF7F8FFAE4605006946534620F00700C8
:1003F000854618B020B5FFF761FFBDE820404FF0FB
:1004000000064FF000074FF000084FF0000B21F0FE
:100410000701AC46ACE8C009ACE8C009ACE8C009CB
:10042000ACE8C0098D46704710B50446AFF30080B4
:100430002046BDE81040FFF72CBF000001491820FE
:10044000ABBEFEE7260002000CB503460A467E203E
:100450008DF8000001208DF801008DF80230002099
:100460008DF8030001208DF804008DF80520FF2091
:100470008DF806000721684600F040F80CBD00002A
:100480003EB5002400F032F8144800F02BF8044682
:10049000124800788DF80000104840788DF801006F
:1004A0000E4880788DF802000C48C0788DF8030063
:1004B0000A48001D01909DF80300001D0749085CD3
:1004C0008DF8080044B19DF8010028B90846C278AB
:1004D000011D0348FFF704FF3EBD0000D1000020CE
:1004E00061020020014600207047000000B517217E
:1004F000014800F003F800BD6102002070470000D1
:1005000001480249086070470090D00300000020B5
:1005100010B500F01DF928B16B480088C0F3042025
:100520006A49086000F068F910B16948694948678C
:1005300000F08AF930B16448E0380068C0F3423016
:100540006549086000F0AAF928B16448006820F005
:1005500080706249086000F0B9F948B10020604934
:1005600008604FF08041C1F810015B49091F086025
:1005700000F0D6F918B1032057496431086000F043
:10058000E7F968B1052057490860012055497831DD
:10059000086000205349083108603F20091F0860A7
:1005A00000F0EEF9002855D04748E03000684E4989
:1005B00008604548E4300068091D08604248E8309A
:1005C0000068091D08604048EC300068091D08609B
:1005D0003D48F0300068091D08603B48F430006871
:1005E000091D08603848F83000683F49203108602C
:1005F0003548FC300068091D08603C480068091D4A
:1006000008603A48001D0068091D08603748083036
:100610000068091D086035480C300068091D086035
:100620003248103000683049403108602F4814309B
:100630000068091D08602D4818300068091D086011
:100640002A481C300068091D0860284820300068CE
:10065000091D086000F052F830B11B48CC38006822
:1006600000F04F002249086000F09CF840B121489A
:10067000006800F0010018B16FF001001D4908602A
:1006800000F0D2F828B11C48006840F480601A4994
:10069000086012487438006840F470000F497439DB
:1006A000086000BF00BF00BFBFF34F8F00BF00BF97
:1006B00000BF00BF00BF00BFBFF36F8F00BF00BF10
:1006C00000BFFFF71DFF10BD24030010403501409F
:1006D0000DF0ADBA00C007403C050040FCED00E065
:1006E0000C0100401056004020C5004024040010BA
:1006F000E40E0040000400403C170040134800781E
:10070000062820D11148001D007800F00F00D0B954
:100710000E480830007800F0F000302801D10120A8
:1007200070470A480830007800F0F000402801D1F6
:100730000120F5E705480830007800F0F000502867
:1007400001D10120ECE70020EAE70000E00F00F013
:1007500013480078062820D11148001D007800F0C9
:100760000F00D0B90E480830007800F0F0003028B3
:1007700001D1012070470A480830007800F0F000ED
:10078000402801D10120F5E705480830007800F045
:10079000F000502801D10120ECE70020EAE700003A
:1007A000E00F00F013480078062820D11148001D02
:1007B000007800F00F00D0B90E480830007800F043
:1007C000F000302801D1012070470A480830007835
:1007D00000F0F000402801D10120F5E7054808307D
:1007E000007800F0F000502801D10120ECE7002053
:1007F000EAE70000E00F00F00A48007806280ED172
:100800000848001D007800F00F0040B90548083086
:10081000007800F0F000302801D10120704700205E
:10082000FCE70000E00F00F006480068062806D14B
:100830000448001D0068062801D1012070470020EF
:10084000FCE700003001001013480078062820D192
:100850001148001D007800F00F00D0B90E48083094
:10086000007800F0F000302801D1012070470A48DC
:100870000830007800F0F000402801D10120F5E7B1
:1008800005480830007800F0F000502801D1012020
:10089000ECE70020EAE70000E00F00F00A480078EB
:1008A00006280ED10848001D007800F00F0040B95E
:1008B00005480830007800F0F000302801D1012010
:1008C00070470020FCE70000E00F00F013480078BC
:1008D000062820D11148001D007800F00F00D0B983
:1008E0000E480830007800F0F000302801D10120D7
:1008F00070470A480830007800F0F000402801D125
:100900000120F5E705480830007800F0F000502895
:1009100001D10120ECE70020EAE70000E00F00F041
:100920000A48007806280ED10848001D007800F01B
:100930000F0040B905480830007800F0F00030287A
:1009400001D1012070470020FCE70000E00F00F01B
:100950000A48007806280ED10848001D007800F0EB
:100960000F0040B905480830007800F0F00030284A
:1009700001D1012070470020FCE70000E00F00F0EB
:100980000A48007806280ED10848001D007800F0BB
:100990000F0040B905480830007800F0F0005028FA
:1009A00001D1012070470020FCE70000E00F00F0BB
:1009B00005E000210846FFF747FDFFF761FDF8E776
:1009C0004FF04070E1EE100A70470000EC090000A3
:1009D00000000020040000003C020000F0090000BC
:1009E00004000020F4420000580200000090D003F0
:0400000500000201F4
:00000001FF
